:10000000000003308A004A2BFF00030E8301A10089
:100010007F08A0000A08A7008A01A00E0408A20019
:100020007708A3007808A4007908A5007A08A6003C
:10003000831383128C308400801E20288C1A34296C
:10004000220884002308F7002408F8002508F90096
:100050002608FA0027088A00210E8300FF0E7F0E73
:1000600009000A108A100A11820728340C3401345E
:1000700006340A108A100A1182070C3400340A1060
:100080008A100A1182070C342034203420342034A2
:10009000473461346C346C34693475346D342034D5
:1000A000203420342034203400340A108A100A11FD
:1000B0008207083400340A108A100A1182070A34B1
:1000C000003483160510831205101330F700F70B68
:1000D00067286A28BC080319722883160510831242
:1000E0000514762883160510831205100000831668
:1000F0008510831285103D0EBE000F30BE053E08F0
:10010000BF003F188528051186280515831605119F
:100110008312BF188D2885118E28851583168511A9
:1001200083123F1995280513962805178316051382
:100130008312BF199D2885139E2885178316851362
:100140000000851083128514A5288316851083125C
:1001500085103D080F39BE003E08BF003F18B22889
:100160000511B3280515831605118312BF18BA2887
:100170008511BB2885158316851183123F19C22866
:100180000513C3280517831605138312BF19CA2840
:100190008513CB28851783168513000085108312DD
:1001A0008514D228831685108312851008003930F3
:1001B0008400831300080319EB280130F800F701CD
:1001C000F70BE028F80BDF284A30F700F70BE6289A
:1001D000E928800BDD28080001303A02FC3E0318B4
:1001E000FF28043E07298030BB00FF28C030BB0039
:1001F000FF289430BB00FF28D430BB00FF2801301B
:100200003902BB07BC013B08BD00612008000A148D
:100210008A100A118207F328F628F928FC283808E2
:100220000C3A03191A29063A03192229023A03192A
:1002300028292D29BC010130BD0061200230B90000
:10024000D72033290130B9000230BA00EC2033291D
:10025000BC011030BD00612033290130BC003808DA
:10026000BD006120332908008C1E34291A08B7000C
:1002700037080C1E392999003708B8000F21AA0A3F
:100280008C128A11202883160510831205108316FC
:10029000851083128510A8018B1BA8178B130F30B4
:1002A000B900D720A81B8B17AE012E08023C031CF7
:1002B0008E290330BF003F185F29051160290515FD
:1002C000831605118312BF186729851168298515C2
:1002D0008316851183123F196F290513702905179D
:1002E000831605138312BF1977298513782985177B
:1002F0008316851300008510831285147F298316C9
:10030000851083128510A8018B1BA8178B1305304D
:10031000B900D720A81B8B17AE0A55290230BF00A1
:100320003F18942905119529051583160511831287
:10033000BF189C2985119D29851583168511831267
:100340003F19A4290513A529051783160513831240
:10035000BF19AC298513AD298517831685130000B5
:10036000851083128514B429831685108312851095
:10037000AE012E08033C031CD5292E083120AF0006
:10038000A8018B1BA8178B13BC012F08BD0061208F
:10039000A81B8B17A8018B1BA8178B130530B9005E
:1003A000D720A81B8B17AE0AB929682BAE080319F2
:1003B000E429A8018B1BA8178B13BC010F30BD00CB
:1003C0006120A81B8B17EE29A8018B1BA8178B1384
:1003D000BC010C30BD006120A81B8B170800AE01CA
:1003E000D621831606148312061C0A2A8316861544
:1003F0008312861D0A2A2D08633C031C0A2AA801C1
:100400008B1BA8178B130A30B900D720A81B8B179A
:10041000AD0AF1292D08643C031D212A0130AD00ED
:10042000A8018B1BA8178B132908B8000F21A81B44
:100430008B1729080C1E1A2A99000130AE00D6210C
:10044000F92A8316061483120618842A0130AE0096
:100450002E0B552A29082F3C031D312A3A30A900BA
:10046000552A2908403C031D382A5B30A900552A2B
:1004700029085F3C031D3F2A7B30A900552A290823
:100480007E3C031D462A2130A900552A29085A3CE2
:10049000031D4D2A4130A900552A29087A3C031D25
:1004A000542A6130A900552AA90AAE08031D832ADF
:1004B00029087B3C031D5F2A5F30A900832A290895
:1004C0005B3C031D662A4030A900832A29083A3C78
:1004D000031D6D2A2F30A900832A2908213C031D02
:1004E000742A7E30A900832A2908413C031D7B2AF7
:1004F0005A30A900832A2908613C031D822A7A30D8
:10050000A900832AA903E02AAE012E0BB22A2908EA
:100510002F3C031D8E2A3A30A900B22A2908403CFC
:10052000031D952A5B30A900B22A29085F3C031DF0
:100530009C2A7B30A900B22A29087E3C031DA32AED
:100540002130A900B22A29085A3C031DAA2A4130A9
:10055000A900B22A29087A3C031DB12A6130A900FA
:10056000B22AA90AAE08031DE02A29087B3C031D14
:10057000BC2A5F30A900E02A29085B3C031DC32A7E
:100580004030A900E02A29083A3C031DCA2A2F302E
:10059000A900E02A2908213C031DD12A7E30A900A8
:1005A000E02A2908413C031DD82A5A30A900E02A34
:1005B0002908613C031DDF2A7A30A900E02AA9033B
:1005C000A8018B1BA8178B132908B8000F21A81BA3
:1005D0008B17AE012E08552000380319F92AAE0AF0
:1005E000A8018B1BA8178B13B8000F21A81B8B1712
:1005F000EA2AB12B0D300C1EFB2A9900AE012E0801
:100600005B20003803190E2BAE0AA8018B1BA8171C
:100610008B13B8000F21A81B8B17FF2AC02B2C08A7
:10062000033C031D152BAC01162BAC0A2C08FC3E19
:100630000318282B043E422B6130A900282B2030C0
:10064000A902282B3030A900282B2130A900282B03
:10065000A8018B1BA8178B132908B8000F21A81B12
:100660008B17AE012E08552000380319412BAE0A16
:10067000A8018B1BA8178B13B8000F21A81B8B1781
:10068000322B112C0A148A140A1182071C2B1F2BDF
:10069000222B252B840183131F30830583168E158F
:1006A00019309900A630980090308312980061307C
:1006B000A9000130AA000130AB00AC010130AD004F
:1006C00007309F00FF306600831681138312432991
:1006D000AE012E083F2000380319782BAE0AA8017E
:1006E0008B1BA8178B13B8000F21A81B8B17692B26
:1006F0000830AE00A8018B1BA8178B13FA30B90085
:10070000D720A81B8B17AE0B7A2BAE012E083920F1
:1007100000380319952BAE0AA8018B1BA8178B1361
:10072000B8000F21A81B8B17862B0130AE00D621F5
:1007300083168C16C03083128B0483160614831222
:10074000061CA72B8316861583128619B12BA801C8
:100750008B1BA8178B13C830B900D720A81B8B1789
:10076000EF29831606168312061AC02BA8018B1BCD
:10077000A8178B13FA30B900D720A81B8B17FA2AB9
:10078000831686168312861A022C0230AE00A80148
:100790008B1BA8178B139630B900D720A81B8B177B
:1007A000AE0BC72BAE012E08552000380319E22BE3
:1007B000AE0AA8018B1BA8178B13B8000F21A81B2A
:1007C0008B17D32BA8018B1BA8178B13B8010F21F4
:1007D000A81B8B17AE012E08552000380319FA2BE1
:1007E000AE0AA8018B1BA8178B13B8000F21A81BFA
:1007F0008B17EB2B08300C1EFB2B990000300C1EC6
:10080000FF2B9900831606178312061B112CA801D3
:100810008B1BA8178B13FA30B900D720A81B8B1796
:060820000F2B9D2B122C92
:02400E00183F59
:00000001FF
;PIC16F628A
;CRC=D543  CREATED="10-oct.-25 11:10"
